:1000B20041542B434D47463D310D0A0041542B43D9
:1000C2005343533D2247534D220D0A0041542B43C3
:1000D2004D47533D2231383532333539313035369B
:1000E200220D0A00736F6D656F6E65206973206261
:1000F2007265616B20696E21202D2D46726F6D2015
:07010200486F6D650D0A0056
:0602AE0001180001170019
:1001AC00E4FDFCC3ED9FEE6480F8EC648098501580
:1001BC00E4FBFA0BBB00010ABA02F8BB58F50DBD03
:0501CC0000010C80DEC3
:0101D100220B
:10029600758920758DFDD28E759850D2AFD2AC225D
:10023900A907AF0119EF6010D2A17F147E00120146
:09024900ACC2A11201AC80EA2252
:0300230002014E89
:10014E00C0E0C0D075D000C000309821E517B40FC4
:10015E0003751700E599640A6005E599B4200375E7
:10016E00180174082517F8A699C2980517D000D063
:04017E00D0D0E032CB
:100281007E007F0F7D007B007A007908120122E455
:05029100F517F518222D
:10026B001201096010F5993099FDC299740129F9B1
:06027B00E43AFA80EB22D8
:0802A6008F993099FDC29922E5
:1001D200E518601DE4F518E508B44F08E509B44BCD
:1001E200037F01227F09120239D2A1E580C313F5F0
:0401F200807F0022E8
:1001F600E518601BE4F518E508B43E037F01227F8D
:1002060009120239D2A1E580C313F5801202817F5B
:020216000022C4
:050252007BFF12026BAE
:10025700E51860FCE4F518120281E51860FCE4F586
:0402670018020281F6
:100218007A0079B21202521201D2EF60FA5380FECC
:100228007A0079BE1202521201D2EF60FA5380FDB1
:0102380022A3
:100182001202817BFF7A0079CE12026B12025712A1
:1001920001F6EF60FA5380FB7BFF7A0079E61202E8
:0A01A2006B7F1A1202A65380F722A9
:100003001202967580FF12021820A0FD4380FC1295
:0E00130001827F0912023930A0F8D2A180EBE1
:03000000020026D5
:0C002600787FE4F6D8FD75811802006DAB
:10010900BB010689828A83E0225002E722BBFE02F4
:09011900E32289828A83E4932227
:10012200EF4E6012EF60010EEDBB010B89828A83F4
:10013200F0A3DFFCDEFA2289F05007F709DFFCA901
:0C014200F022BBFEFCF309DFFCA9F02258
:10003200020003E493A3F8E493A34003F68001F2E1
:1000420008DFF48029E493A3F85407240CC8C333CF
:10005200C4540F4420C8834004F456800146F6DF9E
:10006200E4800B01020408102040809002AEE47E7E
:10007200019360BCA3FF543F30E509541FFEE49393
:10008200A360010ECF54C025E060A840B8E493A35A
:10009200FAE493A3F8E493A3C8C582C8CAC583CA85
:1000A200F0A3C8C582C8CAC583CADFE9DEE780BE3D
:0102B4000049
:00000001FF
